:020000040000FA
:040000007CEF3DF064
:107AF3000100000001F30EF66E7A0EF76E000EF829
:107B03006E00EE0FF010EE05F00900F5CFEEFFE585
:107B130050E150FAE1000EF86E000163EF3EF00011
:107B23000E076E080E066E07BE9CEF3DF09AEF3D02
:107B3300F09EEF3DF0C0EF3DF006C004F0010E05EE
:107B43006E042AA7EF3DF0D8900536042EA5EF3D2D
:107B5300F005508C6E9DEC3FF0F3EC3EF0015002CB
:107B630010D8B4B7EF3DF0B9EF3DF0BBEF3DF0C037
:107B7300EF3DF00606D8A0070695EF3DF012000092
:107B83000E076E000E066E07BED1EF3DF0075009DB
:107B9300E1080E065CD8A0D1EF3DF0D3EF3DF0D560
:107BA300EF3DF0F6EF3DF006C004F0010E056E0464
:107BB3002ADEEF3DF0D8900536042EDCEF3DF005CC
:107BC300508C6E9DEC3FF0F3EC3EF001500210D868
:107BD300B4EEEF3DF0F0EF3DF0F2EF3DF0F6EF3DA8
:107BE300F0064A072AC5EF3DF01200000E076E00AB
:107BF3000E066E07BE07EF3EF0075009E1090E06B9
:107C03005CD8A007EF3EF009EF3EF00BEF3EF02CFF
:107C1300EF3EF006C004F0010E056E042A14EF3E99
:107C2300F0D8900536042E12EF3EF005048C6E9DBD
:107C3300EC3FF0F3EC3EF001500210D8B424EF3ED9
:107C4300F026EF3EF028EF3EF02CEF3EF0064A0719
:107C53002AFBEF3DF01200000E076E000E066E07C2
:107C6300BE3DEF3EF0075009E1070E065CD8A03D8C
:107C7300EF3EF03FEF3EF041EF3EF062EF3EF006A5
:107C8300C004F0030E056E042A4AEF3EF0D89005B7
:107C930036042E48EF3EF005508C6E9DEC3FF0F31A
:107CA300EC3EF001500210D8B45AEF3EF05CEF3EC8
:107CB300F05EEF3EF062EF3EF0064A072A31EF3EF8
:107CC300F01200000E956E000E8C6E938E938CF165
:107CD3009E82EF3EF0C1EC3DF082EF3EF0A9EC3E18
:107CE300F082EF3EF0F7EC3DF082EF3EF03FEC3FE9
:107CF300F082EF3EF091EC3DF082EF3EF02DEC3E52
:107D0300F013500D6E0E6A0E50000AD8B48CEF3E7D
:107D1300F082EF3EF00D50010AD8B46CEF3EF00351
:107D23000AD8B470EF3EF0010AD8B474EF3EF007FE
:107D33000AD8B478EF3EF0010AD8B47CEF3EF003E2
:107D43000AD8B480EF3EF082EF3EF000EF00F0007F
:107D53000E0B6E000E0A6E000E096E070E086E0BF8
:107D6300BEBDEF3EF00B5009E1080E0A5CD8A0BD82
:107D7300EF3EF0BFEF3EF0C1EF3EF0F2EF3EF00812
:107D8300C004F0010E056E042ACAEF3EF0D8900538
:107D930036042EC8EF3EF00AC006F0010E076E0649
:107DA3002AD6EF3EF0D8900736062ED4EF3EF007E2
:107DB3005005248C6E9DEC3FF0F3EC3EF001500235
:107DC30010D8B4E7EF3EF0E9EF3EF0EBEF3EF0F210
:107DD300EF3EF00A4A0B2A0806D8A00906B1EF3E87
:107DE300F0120081BEF8EF3EF0FAEF3EF012EF3FE3
:107DF300F0820E036EDE0EE82EFED7032EFCD713A1
:107E03002A060E136408EF3FF00AEF3FF00CEF3F32
:107E1300F0010E136E000E026E010E016E3EEF3F77
:107E2300F081BC17EF3FF019EF3FF03AEF3FF082DC
:107E33000E036EDE0EE82EFED7032EFCD7010E0FC7
:107E430026000E102211221222050E0F18101011F7
:107E5300101210D8A430EF3FF032EF3FF03AEF3F6B
:107E6300F0010E0F6E000E106E000E116E000E125A
:107E73006E000E026E000E016E1200000E0A6E00FE
:107E83000E096E000E0C6E000E0B6E000E086E00D7
:107E93000E076E09500B248C6E07C004F0010E050B
:107EA3006E000E066E042A5AEF3FF0D89005360690
:107EB30036042E57EF3FF00F0E0516000E0616057B
:107EC30050092606500A2207500708046E010E05C2
:107ED3006E000E066E042A72EF3FF0D89005360648
:107EE30036042E6FEF3FF0F00E0516000E06160552
:107EF300500B2606500C229DEC3FF0F3EC3EF001B4
:107F0300500210D8B488EF3FF08AEF3FF08CEF3F78
:107F1300F09CEF3FF0074A082A08BE9AEF3FF008AB
:107F23005009E1050E075CD8A09AEF3FF09CEF3FA4
:107F3300F04BEF3FF012000F04101011101210D885
:107F4300A4A6EF3FF0A8EF3FF0B1EF3FF0820E01A0
:107F53006EDE0EE82EFED7012EFCD7FFEF3FF002B8
:107F63000E0F18101011101210D8A4BBEF3FF0BD64
:107F7300EF3FF0CBEF3FF0020E026E040E016EBA3C
:107F83000EE82EFED7012EFCD7022EFAD700D0FF23
:107F9300EF3FF0030E0F18101011101210D8A4D5D4
:107FA300EF3FF0D7EF3FF0E5EF3FF0030E026E082F
:107FB3000E016E770EE82EFED7012EFCD7022EFAA5
:107FC300D700F0FFEF3FF0040E0F1810101110123E
:107FD30010D8A4EFEF3FF0F1EF3FF0FFEF3FF005D4
:107FE3000E026E0F0E016EF10EE82EFED7012EFC6F
:0D7FF300D7022EFAD700F0FFEF3FF012008A
:020000040020DA
:08000000FFFFFFFFFFFFFFFF00
:020000040030CA
:0E00000000091F1EFF8181FF0FC00FE00F409F
:00000001FF
